:020000040800F2
:100000006808002091010008B70100086108000895
:1000100000000000000000000000000000000000E0
:10002000000000000000000000000000910D00082A
:100030000000000000000000BD010008E10E000803
:10004000C101000800000000C1010008C101000852
:10005000C1010008C1010008C1010008C101000878
:1000600000000000C1010008A9040008C101000847
:10007000C1010008C1010008C10100080000000022
:10008000C10100080000000000000000C1010008DC
:10009000C1010008C1010008610F0008C10100088A
:1000A000C1010008C1010008C10100087D1000085D
:1000B000C101000800F002F800F03EF80CA030C8C2
:1000C000083824182D18A246671EAB4654465D46D4
:1000D000AC4201D100F030F87E460F3E0FCCB64660
:1000E0000126334200D0FB1AA246AB4633431847E1
:1000F0008C150000AC150000103A02D378C878C106
:10010000FAD8520701D330C830C101D504680C6059
:10011000704700000023002400250026103A01D378
:1001200078C1FBD8520700D330C100D50B607047AF
:100130001FB51FBD10B510BD00F075F91146FFF7D2
:10014000F7FF01F0EAF800F08DF903B4FFF7F2FFD2
:1001500003BC00F093F9000070B505460C46164646
:1001600002E00FCC0FC5103E102EFAD2082E02D39B
:1001700003CC03C5083E042E07D301CC01C5361FAE
:1001800003E021782970641C6D1C761EF9D270BDC5
:100190000F4880F308880F480168090E0E4A914203
:1001A00005D10E480E4901600E480F4901600F4805
:1001B00080470F480047FEE7FEE7FEE7FEE7FEE761
:1001C000FEE700000B480C490C4A0D4B704700003D
:1001D00068080020040000001F0000001810024002
:1001E000010000000000014000000000E50E0008D2
:1001F000B50000086802002068080020680400209C
:1002000068040020F8B5042A2CD3830712D00B7899
:10021000491C0370401C521E83070BD00B78491CED
:100220000370401C521E830704D00B78491C0370D6
:10023000401C521E8B079B0F05D0C91ADF002023DC
:10024000DE1B08C90AE0FFF787FFF8BD1D4608C995
:10025000FD401C46B4402C4310C0121F042AF5D2A6
:10026000F308C91A521EF0D40B78491C0370401CC5
:10027000521EEAD40B78491C0370401C012AE4D4B6
:1002800009780170F8BD01E004C0091F0429FBD200
:100290008B0701D50280801CC90700D0027070470F
:1002A00000290BD0C30702D00270401C491E02294E
:1002B00004D3830702D50280801C891EE3E7002255
:1002C000EEE70022DFE7002203098B422CD3030A6A
:1002D0008B4211D300239C464EE003460B433CD493
:1002E000002243088B4231D303098B421CD3030AFB
:1002F0008B4201D394463FE0C3098B4201D3CB012B
:10030000C01A524183098B4201D38B01C01A52415A
:1003100043098B4201D34B01C01A524103098B425E
:1003200001D30B01C01A5241C3088B4201D3CB0049
:10033000C01A524183088B4201D38B00C01A52412C
:1003400043088B4201D34B00C01A5241411A00D2DC
:1003500001465241104670475DE0CA0F00D0494245
:10036000031000D34042534000229C4603098B42B5
:100370002DD3030A8B4212D3FC22890112BA030A3D
:100380008B420CD3890192118B4208D389019211BF
:100390008B4204D389013AD0921100E08909C30944
:1003A0008B4201D3CB01C01A524183098B4201D346
:1003B0008B01C01A524143098B4201D34B01C01A31
:1003C000524103098B4201D30B01C01A5241C308A9
:1003D0008B4201D3CB00C01A524183088B4201D318
:1003E0008B00C01A5241D9D243088B4201D34B0033
:1003F000C01A5241411A00D20146634652415B1075
:10040000104601D34042002B00D549427047634655
:100410005B1000D3404201B50020C046C04602BD7B
:10042000704770477047754600F024F8AE460500E7
:1004300069465346C008C000854618B020B5FFF78E
:10044000C1FE60BC00274908B6460026C0C5C0C52D
:10045000C0C5C0C5C0C5C0C5C0C5C0C5403D4900B8
:100460008D46704710B50446C046C0462046FFF78B
:100470006CFE10BD0048704704020020014918209E
:10048000ABBEFEE726000200704710B5024600230F
:10049000002005E014782418A0B2521C5C1CA3B202
:1004A0008B42F7DB10BD000010B5202000F032F8C1
:1004B000012807D1202000F00BF80122024903484F
:1004C00000F088FE10BD0000060106000038014063
:1004D000012109070140002902D00349486001E0D9
:1004E00002494860704700000004024000000240DA
:1004F000002904D0026801231A43026003E0026865
:10050000014B1A4002607047FEFF00000146486838
:1005100080B2704701460020002201231B070B40D8
:10052000002B02D0064B1A6801E0064B1A681346EE
:100530000B40002B01D0012000E00020704700009C
:100540000004024000000240002A03D003680B436D
:10055000036002E003688B430360704710B500221C
:1005600002680D4B1A400C6A8B6823430C692343C5
:100570004C6923438C692343CC6923434C6A23434E
:100580008C6A23431A430260CB6843600B68836024
:100590004B68C36010BD00000F80FFFF41607047D3
:1005A00010B5CC210548FFF78CFE0C210448FFF75D
:1005B00086FE04480021016010BD000020010020DB
:1005C000EC0100200400002070B5044600252078CE
:1005D0008007C00F002800D170BD00F035F9054636
:1005E0006068A84204D909496068081A451901E001
:1005F00060682D1AA068A84205D22078022188439D
:1006000020700120E8E70020E6E70000FFFF00007F
:1006100070B505460C4620788007C00F002808D129
:10062000207802218843801C207000F00DF9606062
:10063000A56070BD0149C8607047000000200240FD
:1006400030B5044604250B20000400F07BF8054675
:10065000042D17D10C480069022108430A4908619A
:1006600008464461006940210843074908610B209E
:10067000000400F067F8054603480069022188433A
:1006800001490861284630BD0020024004200D4980
:10069000C968C907C90F002901D0012010E0094924
:1006A000C96810221140002901D0022008E0054944
:1006B000C96804221140002901D0032000E0042071
:1006C0007047000000200240034800698021084371
:1006D00001490861704700000020024070B50446DF
:1006E0000D4604260B20000400F02CF80646042ECC
:1006F00011D10A4800690121084308490861258091
:100700000B20000400F01EF806460448006940086B
:10071000400002490861304670BD000000200240E0
:100720000548006980210840002804D00348024998
:100730004860034848607047002002402301674535
:10074000AB89EFCD10B503460424FFF79FFF0446A5
:1007500003E0FFF79BFF04465B1E012C01D1002B39
:10076000F7D1002B00D10524204610BDF0B50A4674
:1007700000210023002400BF3DE001258D402B46D1
:1007800015681D402C469C4234D11579012D02D0AC
:100790001579022D16D185684F000326BE40B5435A
:1007A000856055794E00B5408668354385608588FB
:1007B00001268E40B5438580858896798E40B6B2F5
:1007C0003543858005684F000326BE40B54305606C
:1007D00015794E00B540066835430560C5684F0081
:1007E0000326BE40B543C560D5794E00B540C66806
:1007F0003543C560491C1029BFD3F0BDF0B50023B7
:1008000000244D07EE0E1546B5402B46CD10AE0028
:1008100005462035AD594E07F70E0F26BE40B543AD
:10082000CE10B60007462037BD51CD10AE003D4674
:10083000AD591D432C46CD10AD003E467451F0BD60
:10084000018570478161704710B5034800F0C0FB17
:1008500002490968401810BD00480140040000200A
:1008600000BFFEE700B595B00121480400F01AF979
:100870000121880300F026F90121084600F012F951
:1008800001220A210920C006FFF7B8FF0122092131
:10089000C806FFF7B3FF022108A801750121817581
:1008A000032040020C9008A8C175032141750CA9D2
:1008B0000920C006FFF75AFF012108A80175002191
:1008C00081750120C0020C90012108A8C175032187
:1008D00041750CA90920C006FFF748FF0121C90294
:1008E0000920C006FFF7ACFF4B20C0010E9000208E
:1008F00013900C2012900020119010900F900EA9D0
:10090000474800F089FC4749454800F01DFC01229A
:100910004449434800F05EFC1B2110A801740121EA
:100920008174417414A800F085F801213C4800F05E
:1009300014FC802004901020039000200B903A4873
:1009400002900020089080200690002009903448F2
:1009500028300190002007900590012000030A90A4
:1009600001A93248FFF7FAFD10213048FFF716FEC3
:1009700001212E48FFF7BCFD2020FFF7A9FD012231
:1009800002212A48FFF7E0FD0A2110A80174012185
:100990008174417414A800F04DF880200490002068
:1009A00003900B902248029000200890802006902F
:1009B000202009901A4824300190002007900590CB
:1009C000012000030A9001A918481430FFF7C6FD62
:1009D000802116481430FFF7E1FD0121134814303F
:1009E000FFF786FD0121C9020920C006FFF728FF95
:1009F00000210E481430FFF77BFD80210B48143096
:100A0000FFF7CCFD01224021054800F0B2FB012197
:100A100006481430FFF76CFD00F09CF915B000BDDE
:100A20000038014004010400A00000201C00024026
:100A30002000002000218278002A27D0184A0323B2
:100A40001B02D21803789B109B00D15802789207A2
:100A5000D30EFF229A400B469343194642789207E1
:100A6000120E03789B07DB0E9A4011430C4A0323B6
:100A70001B02D21803789B109B00D1500278D3063A
:100A8000DB0E01229A40064B1A6007E00278D3067B
:100A9000DB0E01229A40024B80331A60704700003F
:100AA00000E100E0002905D0054A52690243044BE9
:100AB0005A6104E0024A52698243014B5A6170470D
:100AC00000100240002905D0054A92690243044BF8
:100AD0009A6104E0024A92698243014B9A6170472D
:100AE00000100240FEB504460025002600200290BA
:100AF000019000900027864840680C210840054678
:100B0000002D06D0042D07D0082D08D00C2D2CD197
:100B100028E0804820602BE07F48206028E07C4867
:100B200040680F218904084006467948406803213F
:100B3000C90308400290B00C861C0298002803D11B
:100B40007648374647430BE07148C06A0007000FFC
:100B5000401C019070480199FFF7B5FB70430746B0
:100B6000276005E06E48206002E06A48206000BF10
:100B700000BF67484068F021084005462D096948D4
:100B8000405D009020680099C840606060484068FF
:100B900007210902084005462D0A6248405D009081
:100BA00061680098C140A1605948006BFF21013184
:100BB0000840884202D05C48E0600DE0544840683C
:100BC000012189030840884203D0A0684008E06002
:100BD00002E0A0688008E0604D48006B40210840BA
:100BE000402802D05148206102E00120C00320616A
:100BF0004748006B10210840102802D0454860612A
:100C000001E0206860614248006B8007800F002887
:100C100002D1A068A06119E03D48006B8007800FF9
:100C2000012802D12068A06110E03948006B8007DC
:100C3000800F022802D18003A06107E03448006BD6
:100C40008007800F032801D13248A0613048006B33
:100C5000032109040840002802D1A068E06120E0D7
:100C60002B48006B03210904084001210904884234
:100C700002D12068E06114E02548006B03210904DB
:100C8000084001214904884202D18010E06108E057
:100C90001F48006B032109040840884201D11D4808
:100CA000E0611B48006B032189040840002802D141
:100CB000A068206220E01648006B032189040840E8
:100CC00001218904884202D12068206214E0104882
:100CD000006B0321890408400121C904884202D124
:100CE0000011206208E00A48006B032189040840D3
:100CF000884201D1074820620548006B80210840E6
:100D0000802802D00648606200E06762FEBD0000F5
:100D10000010024000127A000024F40000093D0097
:100D2000006CDC0208000020809FD50012800000CB
:100D3000002806D00649096801221143044A1160BF
:100D400005E00349096849084900014A11607047F4
:100D50000010024010B50121C9020920C006FFF7AA
:100D60006FFD00210848FFF7C3FB80210648FFF70D
:100D700015FC01224021054800F0FBF90121024841
:100D8000FFF7B6FB10BD0000300002400038014004
:100D90007047000070B504460D460121C9020920C4
:100DA000C006FFF74FFD14493220FFF731FC12480F
:100DB000FFF70AFC00281DD02A4621460F48FFF7FE
:100DC00021FA00210E48FFF793FB29460C48FFF754
:100DD000E5FB012280210B4800F0CBF901210848F6
:100DE000FFF786FB04483438006B02218843024930
:100DF0003439086370BD000054010020A0000020B9
:100E00001C000240003801400CB500200190009009
:100E1000314800680121090408432F49086000BFD8
:100E20002D48006801214904084000900198401CA9
:100E300001900098002804D10521090301988842F7
:100E4000EED125480068012149040840002802D05D
:100E50000120009001E0002000900098012839D185
:100E600011201E4908601C4840681B49486008461C
:100E700040684860084640687F21C9038843164996
:100E80004860084640680521090408431249486043
:100E9000084600680121090608430F49086000BFA1
:100EA0000D4800680121490608400028F8D00A488A
:100EB0004068800880000849486008464068022170
:100EC00008430549486000BF034840680C210840BA
:100ED0000828F9D10CBD000000100240002002409B
:100EE0007047000010B51B480068012108431949EC
:100EF0000860084640681849084016494860084696
:100F00000068164908401349086008460068012136
:100F1000890488430F490860084640683F21090456
:100F200088430C4948600846C06A00090001C8624D
:100F30000846006BFF215431884306490863084680
:100F4000406B40084000486300208860FFF75CFF6A
:100F500010BD0000001002400CB8FF08FFFFF6FEB5
:100F600010B50121074800F036F8002809D001210A
:100F7000044800F01BF8044800680449401802497E
:100F8000086010BD0048014004000020FFFF000081
:100F9000002904D0028880231A43028003E00288DB
:100FA000014B1A40028070477FFF0000CA43028253
:100FB00070470000002904D0028801231A430280F0
:100FC00003E00288014B1A4002807047FEFF0000D8
:100FD0000146486A704702460020138A0B40002BE6
:100FE00001D0012000E000207047002A03D083894F
:100FF0000B43838102E083898B4383817047000028
:1010000000220288154B984206D001239B07984284
:1010100002D0134B984203D1124B1A404B881A430B
:10102000114B984203D0114B1A400B891A4302808E
:101030004B68C3620B880385084B984208D00C4B61
:10104000984205D00B4B984202D00B4B984201D1ED
:101050008B7A03860123838270470000002C0140B5
:10106000000400408FFF000000100040FFFC000063
:1010700000400140004401400048014070B5002498
:1010800000252949294800F07EF801281CD127486D
:1010900000F03EF9C1B2264802880088401C244B6B
:1010A0001880244881540078AA280DD11846008859
:1010B000042809DD1F48407819460988884203DB67
:1010C00000BF1C48457800BF1B49184800F05BF87A
:1010D000012813D11849154800F036F81748FFF7D2
:1010E00015FA8021081A12490880FFF733FE1448C8
:1010F000006B40084000401C1149086311490B482F
:1011000000F041F801280ED10E49084800F01CF803
:1011100000220C49054800F05DF80121C9020920B0
:10112000C006FFF78DFB70BD0501050000380140CA
:101130001C000020200000200401040030000240B8
:10114000200100200601060010B5002300220B0C30
:1011500001249C402246026210BD002904D002688E
:1011600001231A43026003E0026852085200026041
:101170007047002A03D083680B43836002E08368D2
:101180008B438360704770B502460B4600240021F4
:10119000002500201E04350ED9B201268E403146AE
:1011A000012D02D11668314006E0022D02D15668A9
:1011B000314001E0966831401C0C0126A6403446BF
:1011C000D6693440002903D0002C01D0012000E072
:1011D000002070BDF8B503460024002600960025C7
:1011E000002018460E04340ECEB200960127009E51
:1011F000B7403D46022C01D1001D02E0032C00D176
:101200000830002A03D006682E43066002E0066814
:10121000AE430660F8BD0000F0B58BB004460D4645
:10122000002700200A900026206840084000206027
:10123000666803210903304688430646A8680643CA
:10124000666026682D480640E96868680843296991
:10125000084306432660A6680321090230468843F6
:10126000064668690643A6606846FFF73BFC2448CB
:10127000844202D106980A900DE02248844202D1AD
:1012800007980A9007E02048844202D108980A9003
:1012900001E002980A9020680121C9030840002853
:1012A0000CD029680A9A5000FFF70DF80746296804
:1012B0000A9A5000FFF707F80E4609E029680A98D5
:1012C000FFF701F8074629680A98FEF7FCFF0E466B
:1012D00028684008B04200D87F1C20680121C9035B
:1012E0000840002806D03807460F3846074908400E
:1012F00030430746A7810BB0F0BD0000F3E9FFFFC4
:10130000003801400044004000480040F0FF000069
:101310000146888CC005C00D7047C0B0FFF7E2FDE4
:10132000FFF73EF900F03EF9FFF79CFA40226946CC
:10133000002000F005F800BF00F012F8FCE7000004
:1013400010B50023054800BF04E004680C60001DD0
:10135000091D5B1C9342F8D310BD000000F8000883
:10136000F8B5002700258848008EC007C00F002868
:101370007ED0864800785A2802D0AA2879D1C8E0C1
:1013800000208349088081484078801EC1B27F4890
:10139000FFF77BF804467D484078401E7B49095C96
:1013A000E0B2814266D179484078801E7749085C76
:1013B0002104090E8842F5D17448007875490870F7
:1013C00073480088401C72490880052071494870A4
:1013D0006F480088401C6E49088000206D49887065
:1013E0006B480088401C6A49088068488078A028BB
:1013F00051D0A52826D0A62862D10120624948668E
:101400006248C07800026149097940185E498866DF
:101410000020C8660120FFF78BFCFFF781F934201C
:10142000FFF708F9002505E0A9025B4A8818FFF7D5
:1014300007F96D1C312DF7D3FFF746F90020FFF7B0
:1014400077FC41E05048406EC007C00F00281ED016
:101450004E48C07800024D49097940184A49C96E82
:10146000884217D14848C06E80014B49451802E0B8
:101470007DE060E029E040224449C91D284600F093
:10148000D9F84148C06E401C3F49C86602E00120BF
:101490004049887018E040480068404908400121F0
:1014A0004907884208D13C4846680146086880F3ED
:1014B000088800BFB04702E0AA203649887003E0E0
:1014C00002203449887000BF02E00320314988704F
:1014D0002F4801782F48FEF7D8FF044620122D49E7
:1014E0002B4A128888542A480088401C28490880C2
:1014F0002849274A12888C5425480088401C2449D2
:1015000008802148006B02218843801C1E49086323
:1015100023E0234802881D491E48FEF773FE204839
:1015200000881B4908801848006B02218843801CF2
:101530001549086311E01A48028814491548FEF756
:1015400061FE17480088124908800F48006B02218D
:101550008843801C0C49086300BF00BF0A48006B29
:10156000400840000849086300200D4908800648EB
:10157000008E8007C00F002804D005480178054878
:10158000FFF708FCF8BD000020010020200000202B
:101590001E000020A0000020003000080000FE2FE8
:1015A0001C0000201FB5012103204004FFF78AFA28
:1015B000002168468181C1801B4802903021684625
:1015C00081800021817301A91848FFF719FD0121CD
:1015D0001648FFF7DDFC01211448FFF7EBFC012260
:1015E00011461248FFF701FD1621684601700121DE
:1015F00081704170FFF71EFA002168468181C18029
:10160000094802903021684681800021817301A938
:101610000748FFF7F5FC01210548FFF7B9FC012158
:101620000348FFF7C7FC1FBDFFFF00000048014053
:1016300000440140F8B505460C4616460027012037
:10164000FFF776FBFFF76CF83420FEF7F3FF00BFDF
:101650000FE020780090641C2078010200980818A0
:1016600080B20090641C28460099FFF737F8AD1C43
:10167000BF1CB742EDD3FFF727F8F8BD9C16000852
:101680000000002020000000F8000008BC16000840
:10169000200000204808000014010008000000009D
:1016A0000000000000000000010203040102030426
:0C16B00006070809000000000000000010
:04000005080000B53A
:00000001FF
